:04000000803116280D
:100008007E14803120007F08F9002100901E1128FD
:100018002000901E112881311D2179082000FF0041
:100028007E100900803118282000A001A101A2013A
:10003800A301A401A501A601A701A801A9017E1099
:1000480020008031BD28F8007808083E8600870126
:10005800413F8A00403F0A0080317808043E86000C
:1000680087017008C03F7108C13F7808023E8600CA
:100078008701403FF400413FF5007808043E8600C0
:100088008701403FF600413FF70075087706031DDA
:100098004F2874087606031D69287808023E8600F2
:1000A8008701160001040319612878088600870172
:1000B8001430C03F0030C13F08007808860087012F
:1000C8000230C03F0030C13F080078088600870131
:1000D800FF3081074131FF30813D7F311600010437
:1000E800031D08007808043E860087017808023E50
:1000F80084008501403F803F413F813F7808063EAC
:10010800860087010130C03F0030C13F7808023EB9
:10011800860087011600010403199A2878088600CA
:1001280087011430C03F0030C13F080078088600BE
:1001380087010230C03F0030C13F080022008C0117
:100148008D018E01173021008C00F0308D00DF30DA
:100158008E00EF3023008E00F0308D0017308C00B9
:1001680024008D018C018E0125008C018D018E01EA
:10017800080004302000A8000130A9008031F820D0
:1001880080318031A22080318B17CC2822008C123C
:10019800200024082504031DCA2822008C16CC2818
:1001A80009302000970041309800F93096009501F9
:1001B80090122100901629302000AA000130AB00CF
:1001C800813117218031813126210800203080318A
:1001D800272080317A087B04031908007B088A00ED
:1001E8007A080A00803108008031A22080318131EC
:1001F8000E2180318131222180318031D4200800C4
:1002080020000E0E0139F200F3017208F0007308A5
:10021800F10008006230320099009B019D01063010
:100228009F009E01080020002B08FB002A08FA0006
:100238000800200090128031EA20080016302100C2
:0C0248009700080020009717080008002D
:020000040001F9
:08000E00ECFFF3FFFFFFFFFF11
:00000001FF
