:04000000803116280D
:100008007E14803120007F08F5002100901E112801
:100018002000901E11288131132175082000FF004F
:100028007E100900803118282000A001A101A2013A
:10003800A301A401A501A601A7017E10200080311B
:10004800E628F40020000E0E0139F000F1017408D2
:10005800043E860087017008C03F7108C13F7408DC
:10006800023E86008701403FF000413FF1007408DE
:10007800043E86008701403FF200413FF3007108CB
:100088007306031D492870087206031D6328740847
:10009800023E860087011600010403195B287408D4
:1000A800860087011430C03F0030C13F0800740843
:1000B800860087010230C03F0030C13F0800740845
:1000C80086008701FF3081074131FF30813D7F3154
:1000D80016000104031D08007408043E8600870109
:1000E8007408023E84008501403F803F413F813FC4
:1000F8007408063E860087010130C03F0030C13FCA
:100108007408023E8600870116000104031994282A
:100118007408860087011430C03F0030C13F0800D2
:100128007408860087010230C03F0030C13F0800D4
:1001380022008C018D018E01173021008C00F030D7
:100148008D00DF308E00EF3023008E00F0308D0000
:1001580017308C0024008D018C018E0125008C0144
:100168008D018E010800031022008E1E0314031C4B
:10017800C02822008E16C22822008E12203080311C
:1001880025208031760877040319080077088A004B
:1001980076080A00803108000930200097004130B5
:1001A8009800F930960095019012210090161F30A2
:1001B8002000A8000130A90081310D218031813152
:1001C8001C2108008031F820803180319C2080314A
:1001D8008B17F02822008C12200024082504031D08
:1001E800EE2822008C16F02880319C208031813145
:1001F800042180318131182180318031D0200800DC
:100208006230320099009B019D0106309F009E01DB
:10021800080020002908F7002808F6000800200038
:1002280090128031B720080016302100970008008E
:080238002000971708000800E0
:020000040001F9
:08000E00ECFFF3FFFFFFFFFF11
:00000001FF
